:1000000000100020C1060000BD060000BD06000073
:10001000BD060000BD060000BD060000BD060000D4
:10002000BD060000BD060000BD060000BD060000C4
:10003000BD060000BD060000BD060000BD060000B4
:10004000BD060000BD06000045040000BD0600001E
:10005000BD060000BD060000BD060000BD06000094
:10006000BD060000BD060000BD060000BD06000084
:10007000BD060000BD060000BD060000BD06000074
:10008000BD060000BD060000BD060000BD06000064
:10009000BD060000BD060000BD060000BD06000054
:1000A000BD060000BD060000BD06000051040000B2
:1000B000BD060000BD060000BD060000BD06000034
:1000C000BD060000BD060000BD060000BD06000024
:1000D000BD060000BD060000BD060000BD06000014
:1000E000BD060000BD060000BD060000BD06000004
:1000F000BD060000BD060000BD060000BD060000F4
:10010000BD060000BD060000BD060000BD060000E3
:10011000BD060000BD060000BD060000BD060000D3
:10012000BD060000BD060000BD060000BD060000C3
:10013000BD060000BD060000BD060000BD060000B3
:10014000BD060000BD060000BD060000BD060000A3
:1001500010B5054C237833B9044B13B10448AFF301
:1001600000800123237010BDA410002000000000B7
:100170003C45000008B5034B1BB103490348AFF3EE
:10018000008008BD00000000A81000203C450000D1
:10019000A3F5803A704700BF174B002B08BF134BE5
:1001A0009D46FFF7F5FF00218B460F461348144A82
:1001B000121A02F041FE0E4B002B00D098470D4B57
:1001C000002B00D098470020002104000D000D48AE
:1001D000002802D00C48AFF3008002F009FE200096
:1001E000290000F0D9F902F0EFFD00BF000008007F
:1001F000000000000000000000100020A4100020FB
:10020000EC11002000000000000000000F4A431E17
:100210004C3013F8011F01F0490161F06D011170BC
:10022000197801F0240141F049015170197821F049
:100230006D0141F024018342917002F10302E8D183
:10024000034A0449012002F01DBB00BFC01000207A
:10025000B8110020A811002030B51648164D89B0FD
:10026000012100F0B7FB1548012100F0B3FB042287
:1002700000230A21104602F081FA0FCD01AC0FC411
:1002800095E8070084E807000D4C0E4B039300250A
:10029000012301A920468DF812308DF8045002F098
:1002A00095FC0223A56704216367204602F006FC43
:1002B00009B030BD00550A00903F000000720400F4
:1002C00000000140009F240007B501214FF4EA40DF
:1002D00000F080FB0D4BD869019001A802F092FA62
:1002E0000B4B10220021184602F0A6FD094A0260BD
:1002F000094A0A4B42600A4A82600022C3E901228D
:10030000DA60084A1A6003B05DF804FB903F000011
:10031000B8110020600E1030C0100020A81100207D
:100320003400014001000C002DE9F04792B0482252
:100330000021684602F080FD3C4E3D4FDFF8008111
:100340006D46002402F080FD062390FBF3F202FBD1
:100350001300052864D8DFE800F003272D334F5938
:1003600004EB440912AB334A99445078137843EABA
:1003700000239078322143EA004000F0EAF8C0F30D
:10038000072309F8480CC0F3074009F8473C09F86F
:10039000460C0134182C05F10305D3D16846FFF74C
:1003A00035FF12B0BDE8F08704EB440912AB224AD6
:1003B0009944DAE704EB440912AB204A9944D4E7A4
:1003C00012AB04EB440A98F801009A4498F8003004
:1003D00043EA002398F8020043EA0040322100F08B
:1003E000B8F8C0F307230AF8480CC0F307400AF82E
:1003F000473C0AF8460CCCE712AB04EB440A787889
:100400009A443B7843EA0023B878E5E712AB04EB63
:10041000440A70789A44337843EA0023B078DBE7E3
:1004200000232B706B70AB70B3E700BFB33F0000CD
:10043000B93F0000BC3F0000B63F0000B03F0000E5
:10044000BF3F0000014B1A6E9A66704700200040C3
:10045000044B1A6A520703D504229A62FFF764BF5D
:10046000704700BF0060064030B585B010220124FF
:100470000021684602F0E0FC21461448144D8DF836
:10048000004000F0A7FA1348022101F01DFA2146AE
:10049000114800F09FFA4FF48043694628460393C1
:1004A00002F092FAEB6A43F00403EB620B4B4FF05D
:1004B00000621A6004221A602146284602F068FA97
:1004C000204601F0EDFD05B030BD00BF30053E0017
:1004D0000060064002001E008006160000E100E0F9
:1004E00008B54FF0804301225A6403F5642316498E
:1004F000D3F8B02042F00102C3F8B020D3F8E020D6
:1005000042F00802C3F8E0204A6B42F480524A638A
:10051000D3F8E02022F00802C3F8E020D3F8B0209E
:1005200022F00102C3F8B020084AD2F8A43143F403
:10053000F843C2F8A431FFF78FFEFFF7C5FEBDE810
:100540000840FFF791BF00BF0040054000300E405B
:10055000704730B5642928BF6421C2B2C0F3074494
:10056000C0F30720642510FB01F30020B3FBF5F373
:10057000DBB212FB01F263F30700B2FBF5F2D2B279
:1005800014FB01F462F30F20B4FBF5F1CBB285B09C
:1005900063F3174005B030BD08B502F0FDFBFFF76F
:1005A0009FFF02F006FCFFF7D3FFFAE77047000059
:1005B00008B50421112001F087F90B48012100F052
:1005C00009FA0A48022101F07FF90948022101F0E5
:1005D0007BF90848022101F077F90748022101F070
:1005E00073F9002008BD00BF30053E0002001E0068
:1005F00003002000040022000500240008B54FF08D
:10060000804301225A6403F564231B49D3F8B020C8
:1006100042F00102C3F8B020D3F8E02042F0080213
:10062000C3F8E0204A6B42F480524A63D3F8E020DA
:1006300022F00802C3F8E020D3F8B02022F0010233
:10064000C3F8B0200D4AD2F8A43143F4F843C2F8FD
:10065000A43102F083FB00F02BF802F019FB02F04A
:100660003BFB02F067FBFFF7A3FF02F027FBBDE8AF
:10067000084000F011B800BF0040054000300E40B7
:10068000704700F006B87047704770477047704772
:1006900070470F207047000008B50448012100F0A2
:1006A00099F9BDE80840FFF781BF00BF00550A0077
:1006B0000148012100F08EB900550A00FEE7000054
:1006C00008B500F079F8064B0649074A8B4201D37A
:1006D000FFF762FD52F8040B43F8040BF6E700BF86
:1006E00000100020A410002044450000004870477E
:1006F00000A24A04174AD2F8943003F00703023BE1
:10070000042B1FD8DFE803F00620031A0800124B61
:100710001B680AE0114BFBE79368C3F30443073BF4
:10072000072B14D80E4A52F823300A4AD2F8000197
:10073000C0F304200130B3FBF0F07047094B1B6895
:100740005B08F2E7074BE3E74FF40043EDE70023D4
:10075000EBE700BF00400E400C100020041000200A
:10076000C43F00000810002008B5FFF7C3FF054B89
:10077000D3F80831C3F308230133B0FBF3F0024B85
:10078000186008BD00400E4000100020014B1868A2
:10079000704700BF04100020054B1860054BD3F8CC
:1007A000943003F00703022B01D1FFF7DDBF704740
:1007B0000410002000400E40044B054A9A60D3F814
:1007C000882042F47002C3F88820704700ED00E0F2
:1007D000000000004FF4004070474FF47A707047FB
:1007E000014B1868704700BF0C10002005490A68CB
:1007F0001318054883428CBF4FF0FF320B60104640
:10080000704700BF1010002000000820FEE7000025
:100810000C4B984210D90C4B984210D9022201235C
:100820000A490B640A49D1F8003123F0407343EAC6
:100830000263C1F80031704700221346F0E701223D
:10084000FBE700BF0048E8010090D0030000C84368
:1008500000400E4038B54FF0804300225B68104BDB
:10086000C9B21C461D798D4202D11D68854213D242
:100870000132072A03F10803F4D10A4841F2385142
:10088000FFF7C4FF03224FF080414B6823F0407311
:1008900043EA02634B6038BD04EBC2025279F2E7CF
:1008A00010410000E43F00001F2810B5044604D9A1
:1008B000034840F24311FFF7A9FF0120A04010BDFB
:1008C0003240000038B54FF0804441F67133256C5A
:1008D0002364FFF70BFF0021FFF7BCFF0DB10023DE
:1008E000236438BD044BDB6B5B0604D4034AD2F8A7
:1008F000C830002BFBD1704700300E400000C643CB
:1009000008B5FFF7EFFF024B5868C0F3014008BD80
:1009100000300E40044BD3F84421D20703D4D3F85F
:1009200040211042FBD1704700400E40B0F5004F0F
:1009300038B5054604D30B484FF46161FFF766FFF5
:100940006C1CB4FA84F4C4F11F042046FFF7ACFF1A
:100950000138A84204D0034840F61661FFF756FF5D
:10096000204638BD834000004FF0804341F671328D
:1009700070B51E6C1A6405460C46FFF76BFF114AF2
:10098000114B022C08BF13469D42104A09D94FF063
:100990008C43C3F800210E4A954207D84FF0884394
:1009A00006E04FF08843C3F80021F7E7002CF5D1AB
:1009B0004FF480521A601EB14FF0804300221A6437
:1009C00070BD00BF0024F40080D543020202020083
:1009D00080F0FA02C0F30322013A38B503460E2A2A
:1009E0003AD8DFE802F040433939081B1E2125368A
:1009F000292E391833001F4C0020C3F3043508B1E9
:100A0000FFF788FF04F1424404F5801405EBC404A9
:100A1000A400216038BD184C0020EEE7174C0120DF
:100A2000EBE7174C1020E8E7164C4FF48070E4E732
:100A3000154C4FF48030E0E7144C81F001010020A8
:100A4000DBE7134C81F001010020D6E7114C0020B8
:100A5000D3E7114C0020D0E7BDE838400F4841F6FD
:100A6000D521FFF7D3BE0E4C0020C6E70D4C002069
:100A7000C3E700BFB0400E40C4400E40E0400E400F
:100A8000E8400E40EC400E40F0400E4060410E4009
:100A900064410E40F0410E4050410E40E43F0000E2
:100AA00000400E40C0400E4008B5C0F30313013BA8
:100AB0000B2B00F2AB80DFE803F0060C101A2024A9
:100AC000282C668692A5534BD3F80001C0F304206E
:100AD00008BD504BD3F81401F8E74E4BD3F8000192
:100AE000C0F301600130FFF7DFFE0138F0E7494B4A
:100AF000D3F80C01C0F30820EAE7464BD3F81801FD
:100B0000F8E7444BD3F81C01F4E7424BD3F8080153
:100B1000F0E7414B98422AD00ED8A3F5BA23984269
:100B20002BD003F57033984215D041F679413B48FC
:100B3000FFF76CFE0020CBE7394B984205D0394BCC
:100B400098420ED0384B9842EFD1324BD3F8200167
:100B5000C0F30230C7E72F4BD3F8200100F00F009D
:100B6000C1E72C4BD3F82001C0F30120BBE7294B90
:100B7000D3F82001C0F30310B5E7264BD3F82001CA
:100B8000C0F30340AFE7294B98420CD003F5A11303
:100B900098420ED0264B984212D11E4BD3F8280112
:100BA00000F003009FE71B4BD3F82801C0F30110AE
:100BB00099E7184BD3F82801C0F30130043092E7CD
:100BC00041F69D41B3E71B4B984205D1114BD3F839
:100BD000300100F003007BE741F6AC41A7E7164B7C
:100BE000984205D0154B984206D041F6C4419EE785
:100BF000084BD3F85C01ECE7064BD3F85C01C0F37B
:100C0000014065E7034BD3F8040173E741F6D14196
:100C10008DE700BF00400E4080161800E43F000042
:100C200000362C0080262E0080002A0090171C0021
:100C300090071A00A0091400B8003200B90034006F
:100C400008B5FFF731FF013008BD0000C0F3031302
:100C5000013B10B50C460B2B00F21482DFE813F0B9
:100C60000C00340045005C00700084009800B8005F
:100C70005D01CA01D601FE011F2904D9C24841F60F
:100C8000F941FFF7C3FDFFF71DFEC048FFF7C0FDA8
:100C900000F006FABE4BD3F8001121F4F85141EAF6
:100CA0000424C3F80041FFF75FFD0446FFF728FE68
:100CB00001462046FFF758FEFFF71CFDFFF7A8FD91
:100CC000BDE8104000F002BA1F2904D9AE4841F631
:100CD0000F51FFF79BFDAE4BD3F8141121F4F851DF
:100CE00041EA0424C3F8144110BD4B1EB3F5004F74
:100CF00004D3A84840F62351FFF788FDA44BB4FA6B
:100D000084F1D3F80041C1F11F0124F0407444EA9A
:100D10000164C3F80041E7E7B1F5007F04D39A48C6
:100D200041F61C51FFF772FD994BD3F80C1121F4D9
:100D3000FF3121F4807141EA0421C3F80C11D3E79B
:100D4000B1F5007F04D3904841F62351FFF75EFDD3
:100D50008F4BD3F8181121F4FF3121F4807141EA4F
:100D60000421C3F81811BFE7B1F5007F04D386480A
:100D700041F62B51FFF74AFD854BD3F81C1121F4A6
:100D8000FF3121F4807141EA0421C3F81C11ABE763
:100D9000B1F5007F04D37C4841F63251FFF736FDB0
:100DA000FFF790FD7A4BD3F8081121F4FF3121F4BD
:100DB000807141EA0421C3F80811FFF7D5FC04460D
:100DC000FFF79EFD01462046BDE81040FFF7CCBD71
:100DD000714B984274D010D8704B984246D0704BEB
:100DE000984257D0A3F57033984226D041F6AE51C1
:100DF000BDE810406448FFF709BD6A4B984205D032
:100E0000694B984273D0694B9842EFD1B4F5004FCB
:100E100004D95D484FF4ED51FFF7F8FC2046FFF789
:100E200085FD01460420FFF775FD594AD2F82031AF
:100E300023F4E04343EA013315E0B1F5004F04D950
:100E4000514841F64451FFF7E1FC2046FFF76EFDA3
:100E500001460420FFF75EFD4D4AD2F8203123F40D
:100E6000702343EA0143C2F820313DE7022904D947
:100E700041F655514448FFF7C9FC4FF48020FFF775
:100E800049FD434BD3F8301121F003010C43C3F863
:100E9000304129E7B1F5004F04D93B4841F6725182
:100EA000FFF7B4FC2046FFF741FD01460420FFF7A1
:100EB00031FD374AD2F8203123F00F030B43D2E73C
:100EC000B1F5004F04D9304841F68151FFF79EFC3F
:100ED0002046FFF72BFD01460420FFF71BFD2C4A9F
:100EE000D2F8203123F0F00343EA0113BBE70829CD
:100EF00004D9254841F69051FFF788FC2046FFF7BA
:100F000015FD01460420FFF705FD214AD2F82031E6
:100F100023F4407343EA0123A5E7254B98421DD0F3
:100F200003F5A113984247D0224B98425FD108297C
:100F300004D9154841F6B751FFF768FC2046FFF782
:100F4000F5FC01464020FFF7E5FC114AD2F82831B4
:100F500023F003030B43C2F82831C5E6082904D95E
:100F6000094841F6C651FFF751FC2046FFF7DEFC69
:100F700001464020FFF7CEFC054AD2F8283123F085
:100F8000300343EA0113E6E7E43F00000148E801CB
:100F900000400E408340000080161800A009140095
:100FA0008006160000362C0080262E0080002A00C5
:100FB00090171C0090071A00A1F10F03702B04D9A1
:100FC000324841F6D551FFF721FC2046FFF7AEFC31
:100FD00001464020FFF79EFC2D4AD2F82801043933
:100FE00020F4405040EA0130C2F828017CE641F686
:100FF000E451FDE6274B984205D102297FF63DAF2B
:1010000041F6EE5136E741F6FE51F1E6224B9842A9
:1010100005D0224B984212D041F61761E8E6032929
:1010200004D91A4841F60961FFF7F0FB184BD3F8D1
:101030005C1121F003010C43C3F85C4154E6032921
:1010400004D9124841F61161FFF7E0FB104BD3F8C9
:101050005C1121F4403141EA0444EDE7B1F5007F31
:1010600004D30A4841F61F61FFF7D0FB084BD3F8C1
:10107000041121F4FF3121F4807141EA0421C3F805
:10108000041131E641F62661B2E600BFE43F0000FC
:1010900000400E40A0091400B8003200B90034002E
:1010A00008B507480321FFF7D1FD06480321FFF7E4
:1010B000CDFDBDE8084004480321FFF7C7BD00BFD0
:1010C00040410500504107006041090037B5FFF776
:1010D00011FB0446FFF714FC022817D1194B1A48DC
:1010E0001A491C449C42B4FBF1F188BF01F1FF3165
:1010F0000191FFF7ABFD01991548FFF7A7FD019995
:10110000144803B0BDE83040FFF7A0BD124B134DAB
:101110000D48E2189A42B2FBF5F588BF05F1FF359C
:101120002946FFF793FD0B482946FFF78FFD0C4B2F
:101130000C4907481C449C42B4FBF1F188BF01F103
:10114000FF31DEE7FF2C310140410500002D310168
:1011500050410700604109007FF0FA0280F0FA0276
:10116000FFA14A0400A24A0400F00F00013808B5AC
:101170000B2879D8DFE800F006111B2F25397843BA
:10118000515F6B6F414BD3F8943003F00703023B80
:10119000052B76D83E4AD05C30E03C4BD3F880300B
:1011A00003F00703013B032B6DD83A4AF3E7374BB3
:1011B000D3F8843003F00703013B032B63D8364A8E
:1011C000E9E7324BD3F8883003F00703013B032BE8
:1011D00059D8324ADFE72D4BD3F88C3003F00703A0
:1011E000013B032B4FD82E4AD5E7284B1B6F13F03A
:1011F000030340D0012B14BF0120092008BD234B5D
:10120000D3F85C3103F03003202B36D0302B36D0AE
:10121000102B14BF01200720F0E71C4BD3F85C31E2
:1012200003F44013B3F5001F27D0B3F5401F26D0B9
:10123000B3F5801FEDE7154BD3F8600100F0030014
:10124000431E022B1DD800EB40000130D6E70F4BA8
:10125000D3F86401F2E70D4BD3F8F03103F0070344
:10126000052B10D80F4A96E70F4842F22501FFF7E9
:10127000CDFA0020C2E70720C0E70420BEE708201F
:10128000BCE70520BAE70120B8E700BF00400E40E8
:10129000D1400000D7400000DB400000D7400000F4
:1012A000D7400000DF400000E43F000038B5314B7C
:1012B000984205460BD01ED82F4B984207D02F4B93
:1012C0009D4204D02E4841F23861FFF79FFA28462C
:1012D000FFF74AFF274B9D42044625D00DD8264BE9
:1012E0009D4211D0254B9D421AD0254841F267619D
:1012F000FFF78CFA0DE0234BE2E7224B9D42F4D13D
:10130000214BD3F8884002E01F4BD3F8804004F013
:101310000704042C27D8DFE804F0240B0F17130070
:10132000194BD3F88440F2E7174BD3F88C40EEE723
:10133000BDE83840FFF74EBABDE83840FFF750BA75
:10134000BDE83840FFF749BAFFF7D4F90E4B044621
:10135000D3F80001C0F301600130FFF7A5FAB4FB38
:10136000F0F4204638BD064841F2B961FFF74EFA65
:101370000024F6E70400220002001E000300200003
:10138000E43F00000500240000400E40012808B59D
:1013900014BF12481248FFF7E7FE0138072816D895
:1013A000DFE800F01A1515071515040B0D4B18682A
:1013B00008BDBDE80840FFF7E9B9FFF79BF90A4B04
:1013C000D3F80031C3F3042303FB0000F0E7074820
:1013D00041F23141FFF71AFA0020E9E7B800320084
:1013E000B90034001410002000400E40E43F00001B
:1013F00038B500F47813B3F5E01F054600F0FC8023
:101400004CD8B3F5602F00F0108123D8B3F5C02F6E
:1014100000F0A1800DD8B3F5003F00F0A880B3F52F
:10142000802F00F08D80002B00F0078141F60541F0
:1014300009E1B3F5202F00F09480B3F5402F00F0C0
:101440009C80B3F5002FF1D1FFF754F9B14BD3F8DD
:101450001C317AE0B3F5B01F00F0AA800DD8B3F5C7
:10146000901F00F09280B3F5A01F00F09880B3F5B4
:10147000801FDBD1A84B18686CE0B3F5C01F00F0EB
:10148000A580B3F5D01FD1D1A448FFF70FFFA14B22
:101490000446D3F8280100F0030092E0B3F5401FA2
:1014A00000F0B48024D8B3F5201F00F0BA800FD824
:1014B000B3F5001F00F09E80B3F5101F00F0B3805D
:1014C000B3F5F01FB2D19648BDE83840FFF7EEBE45
:1014D000B3F5281F00F08480B3F5381FA6D19048DB
:1014E000FFF7E4FE8B4BD3F82031C3F3012354E024
:1014F000B3F5601F00F0CF8013D8B3F5501F00F094
:10150000A780B3F5581F00F0AC80B3F5481F8DD10C
:101510000020FFF73BFF7F4BD3F85C3103F0030360
:1015200015E0B3F5681F00F0D080B3F5781F7FF4A5
:101530007DAFFFF7DFF804462846FFF781FB42E066
:10154000FFF7D8F8734BD3F80C31C3F308230133FA
:10155000B0FBF3F038BDFFF7CDF86E4BD3F8183180
:10156000F3E7FFF7C7F86B4BD3F80431EDE7FFF76C
:10157000C1F8684BD3F80831E7E7FFF7BBF8654BD4
:10158000D3F81431C3F30423E1E76548FFF78EFE77
:10159000604BD3F82031C3F30343D840DAE7614806
:1015A000FFF784FE5B4BD3F8303103F00303F4E71D
:1015B0005B48FFF77BFE574B0446D3F8200100F051
:1015C0000F00FFF771F9B4FBF0F0C3E75448FFF7E1
:1015D0006DFE504B0446D3F82001C0F30310F0E732
:1015E0004F48FFF763FE4B4B0446D3F82001C0F38E
:1015F0000230E6E7494867E74848FFF757FE454BA2
:101600000446D3F82801C0F30110DAE74348FFF796
:101610004DFE404B0446D3F82801C0F3013004309E
:10162000CFE7414850E73F484EE74048FFF79CFD71
:1016300007283FF41FAF092803D1BDE83840FFF762
:1016400059B841F2FA313A48FFF7E0F8002081E753
:101650000120FFF79BFE2F4BD3F85C31C3F301430E
:1016600075E73448FFF780FD0438062810D801A339
:1016700053F820F0E9160000F9160000911600005A
:10168000751400009116000091160000E516000088
:1016900041F25B41D7E72848FFF766FD043806288A
:1016A00010D801A353F820F0E9160000F916000045
:1016B000C516000075140000C5160000C516000010
:1016C000E516000041F28D41BDE71C48FFF74CFDD7
:1016D000023809281AD8DFE800F01115070F191988
:1016E0001919050B164BC6E6BDE83840FFF74EB892
:1016F000FFF74CF840002DE7124BBCE6BDE8384040
:10170000FFF76EB8BDE83840FFF764B841F2E44136
:1017100099E700BF00400E40141000200300200095
:1017200002001E00050024000400220006000E0036
:10173000E43F00000A7B36000B7C38000C7F3A0047
:101740001C10002008100020014B1880704700BFBB
:1017500018100020022838B50C4604D00D4842F677
:101760008F01FFF753F80C4D6B6AC3F30113012B84
:101770000DD064B1074842F6AA01FFF747F8074BBE
:10178000D5F8902033EA0202FAD1012038BD4FF497
:101790008003F5E7E43F000000400E40FF3F473A7A
:1017A00005282DE9F04704460F4691461FD83E4BC9
:1017B0003E4A13F800A03E4B13F80080F1B93D4BB0
:1017C00033F810301366012303FA08F8D2F890308A
:1017D00013EA080FFAD1B9F1000F61D00125334A9D
:1017E00005FA0AF5D2F890302B42FBD158E0BDE85B
:1017F000F047314842F27471FFF708B82F4B0228C6
:1018000033F810604ED1536AC3F30113012B49D151
:101810002B4BDB6B5B0504D4274842F28371FEF748
:10182000F5FF224A536A03F00303032B05D1536AE1
:1018300023F0300343F020035362224D1B4BA84496
:101840001E664FEA8808D8F80030002BFBD0B9F1AB
:10185000000F25D05544AD002B68002BFCD0022C86
:101860001ED1EFB1114B5B6A03F00303032B03D0CE
:1018700000212046FFF76EFF0F484FF42051FEF77E
:10188000C5FF012200210220FFF78AFF0A4842F625
:101890007701FEF7BBFF054B1E662B68002BFCD0C3
:1018A000BDE8F0870027C8E7E540000000400E4093
:1018B000EB400000FE400000E43F0000F24000006A
:1018C00000300E408004F210112838B50C4613D0B9
:1018D00000F00F0001380B2800F2EA81DFE810F079
:1018E00029007100B2008D00AE00CC00E801DA00E2
:1018F0000101260156019A01042913D1FEF746FF82
:101900000546B0B10021284600F06CFC023C0C2CCE
:1019100049D8DFE804F0514E353B48484848104864
:10192000414B5400052904D1B04B1D68B04B9D427A
:10193000E8D80025EAE70520062401221146FFF732
:101940002FFFFEF7BFFFFFF7ABFB0DB1FEF7CAFF9E
:10195000A84B5C67FEF708FF0446FEF7CBFEFEF7D8
:1019600057FFFEF7CDFF01462046FEF7FDFF1DB9EC
:101970000121284600F036FCBDE83840FFF7A6BB41
:101980009D48FEF745FF02200446D6E79A48FEF739
:101990003FFF01240320D0E742F2E601BDE83840D2
:1019A0009648FEF733BF42F2EB01F7E70320052428
:1019B000C3E701200324C0E700200424BDE7072477
:1019C000BFE7062940D18D488D4D42F22A11FEF71E
:1019D0001DFF8A4842F23211FEF718FF874842F293
:1019E0003A11FEF713FFFEF785FEFEF711FF854B58
:1019F0000122C3F80026032329E00629824DE8D0FE
:101A0000013C0B2C33D801A353F824F0751A0000C5
:101A1000531A0000611A00006F1A00006F1A0000CC
:101A2000E71900006F1A00006F1A00006F1A00001B
:101A30006F1A00006F1A00004D1A00000629734D3E
:101A4000DED1CBE7724DDBE76D4DD9E704232B6088
:101A500038BD012211460020FFF7A2FE0223F6E75F
:101A6000012211461046FFF79BFE0123EFE742F2E9
:101A7000651193E70023EAE7072904D0092906D076
:101A800042F2EF118AE75B4B00221A67E0E7594BFD
:101A90000122FAE74C1E072C1ED8DFE804F0201DB7
:101AA0001D161D1D0F0403225249D1F85C3123F08D
:101AB000300343EA0213C1F85C31C9E70122114641
:101AC0000420FFF76DFE0122EEE7012211460220FD
:101AD000FFF766FE0222E7E742F24D215EE70022B1
:101AE000E2E74C1E072C1CD8DFE804F01E1B1B1479
:101AF0001B1B0D0403223F49D1F85C3123F4401332
:101B000043EA0253D7E7012211460420FFF748FEBB
:101B10000122F0E7012211460220FFF741FE0222D6
:101B2000E9E742F2702139E70022E4E70C1F062CB6
:101B300029D8DFE804F01304281A282821000122FC
:101B400011460320FFF72CFE00222A49D1F860310C
:101B500023F003031343C1F8603179E701221146F2
:101B60000220FFF71DFE0122EFE7012211460420AB
:101B7000FFF716FE0222E8E7012211460520FFF7D3
:101B80000FFE0322E1E742F2972107E70C1F062C24
:101B900029D8DFE804F01304281A2828210001229C
:101BA00011460320FFF7FCFD00221249D1F86431F1
:101BB00023F003031343C1F8643149E701221146BE
:101BC0000220FFF7EDFD0122EFE70122114604207C
:101BD000FFF7E6FD0222E8E7012211460520FFF7A4
:101BE000DFFD0322E1E742F2BE21D7E60810002024
:101BF000002D310100400E400148E801E43F0000A3
:101C000080400E400010C8438C400E4088400E407B
:101C100084400E408C1E092C47D8DFE804F0383F82
:101C2000143146464646051B012211460520FFF7A2
:101C3000B7FD00232049D1F8F02122F00702134319
:101C4000C1F8F03104E7012211460220FFF7A8FD98
:101C50000123EFE7FEF79AFD184B984204D9184884
:101C600042F2D921FEF7D2FD134A536A43F008032A
:101C70005362012211460220FFF792FD0223D9E7A9
:101C8000012211460320FFF78BFD0323D2E7012237
:101C900011460020FFF784FD0423CBE70122114603
:101CA0001046FFF77DFD0523C4E742F2F82175E6F3
:101CB00042F2243172E600BF00400E4040787D01C0
:101CC000E43F000038B504461120FFF74DFA042820
:101CD00004D11F4842F20F61FEF798FD0122002156
:101CE0000220FFF75DFDE37A022B2AD8194AD25C65
:101CF000194D6B6A23F0030313436B62FEF746FD35
:101D0000164B2288984294BF082000206B6A23F06B
:101D100008031843A388686243EAC223EB622B6B73
:101D2000E2881B0D1B051343628843EAC2232B6321
:101D3000637A227A1B0143EA0233A27A13436B636C
:101D400038BD034842F22361FEF760FD0022CFE771
:101D5000E43F00000A41000000400E4040787D0151
:101D600070B505461120FFF7FFF9022804D10F488E
:101D700042F2CD61FEF74AFD0D4E0E4BB26B2C7850
:101D800013401C436B7844EAC324AB7844EA0364F1
:101D9000EB7844EA0324B36BA34205D0002101226F
:101DA0000846FFF7FDFCB46370BD00BFE43F0000D0
:101DB00000400E4080E4FFF8EFF3108072B67047E9
:101DC00000B962B67047EFF31180602383F3118886
:101DD000704780F311887047034BD86B80F0400048
:101DE000C0F38010704700BF00300E4038B542EAA3
:101DF0000323B3F5007F05460C463ED019D8B3F552
:101E0000807F36D00AD883B3012B21D01F4840F6FB
:101E1000EE11FEF7FBFC002213461FE040F2011218
:101E20009342F3D11A4BD3F824321A0EC3F307436B
:101E300014E0B3F5407F24D040F20132934210D039
:101E400040F201229342E1D1114BD3F8283202E053
:101E50000F4BD3F82432C3F30722DBB22B6022608E
:101E600038BD0B4BD3F82832DFE7094BD3F81C32CF
:101E7000F1E7074BD3F81C32D7E7054BD3F82032F4
:101E8000E9E7034BD3F82032CFE700BF4841000019
:101E90000081E00F08B5FFF79FFF20B1024AD2F89A
:101EA000C830002BFBD108BD0000C64308B5FFF7C2
:101EB00093FFB8B1FFF7EEFF0B4B19685A68C1F3F7
:101EC0000121C2F3014291421A6881BF42F010021F
:101ED0001A604FF08C43054A8EBFC3F8002122F0F0
:101EE00010021A6008BD00BF00300E40020202005E
:101EF000064B1B68DB0608D5054B1B69C3F304437F
:101F0000082B02BF034B044A1A60704700300E4092
:101F100000400E4008100020C0EA210137B5FFF74D
:101F20005BFF38B1254B1B78C3F1020210239340AD
:101F3000234A13612349244DD1F8804145F60E030D
:101F4000C1F880312B6823F42A7323F002035B0568
:101F50005B0D0B66FFF79EFF194B1B68D80604F05C
:101F6000010416D5D1F84031DA01FBD4174B1B68B8
:101F70000B61174B1B78052B0BD1164B1868019082
:101F8000FFF788FF0E4B01985968C1F30141FEF736
:101F9000EBFC0F4B1978052902D01120FFF794FCB8
:101FA0002B68DB075EBF074B02221A661CB1054B8C
:101FB0000022C3F8802103B030BD00BFD91100203A
:101FC00000300E4000400E40C8110020D411002007
:101FD000D2110020081000201A4B022810B5D3F8A7
:101FE00030320C4612D0032813D0012814BFDBB2C4
:101FF000C3F307231B0323F47042ECB95AB140F634
:102000007D111148FEF702FC002010BDC3F3074309
:10201000F0E71B0EEEE70D49CA6E22F4704213433F
:10202000CB660120F1E70949D1F8EC2022F4704297
:102030001343C1F8EC30F4E7002AF4D040F68911DC
:10204000DFE700BF0081E00F4841000000300E4094
:1020500010B50B4C0B4BD4F890201A601120FFF7F1
:1020600083F8094B1870FFF715FF084B084A5B68A7
:10207000C3F301431370074B22691A6010BD00BF00
:1020800000400E40C8110020D211002000300E4048
:10209000D9110020D4110020704770477047704755
:1020A00010B5044608B1FFF7D3FFFFF7FFFE164A4D
:1020B000136943F004031361FFF7EEFFFFF7EDFF31
:1020C000124B1B68DB0618D5FFF776FE01F05CFFAC
:1020D000FFF776FEFFF7E3FFFFF7E0FF7CB1FFF7C6
:1020E0001DFF0A4AD2F84C3123F00043C2F84C31AC
:1020F00044B9BDE81040FEF737BB30BFEAE7FFF751
:10210000F7FEEEE710BD00BF00ED00E000300E402E
:102110000378134A002B437870B514BF04260026B9
:10212000002B8378946914BF02250025002B0379C6
:1021300024F03F0443EA0403C47814BF08210021BB
:10214000012C08BF43F0010333432B430B4393613E
:102150001368417923F4403343EA0143136070BDAF
:1021600000300E40F8B504460F46FFF735FE78B351
:10217000FFF790FE174B5B68C3F301439C4227D0E7
:10218000154BD3F80061FEF7B5FA022C05460FD1C6
:10219000124BC6F3042606FB00069E4204D91048E3
:1021A00040F21471FEF732FB02212846FEF7DCFBF9
:1021B000C4F1020210239340064A13610FB1FFF7E6
:1021C00069FE2CB921462846BDE8F840FEF7CCBB95
:1021D000F8BD00BF00300E4000400E40002D310120
:1021E0004841000013B50246FFF7F6FDC8B152B9E9
:1021F0000D4B0191D3F80041FEF77CFAC4F30422A1
:10220000019902FB0002094B1B7843B1084B9A422B
:1022100005D8022002B0BDE81040FFF7A3BF0020A0
:10222000F8E702B010BD00BF00400E40D8110020FA
:10223000002D3101224B4AF6E85210B5596B5A6312
:102240009A6FD207FCD41B6C13F003031EBF1D4A08
:102250000124C2F8B44A834204D110B9194BC3F81F
:10226000B40A10BD032B00D09BB9431E012B10D81C
:10227000134A4FF40023D362936FDB07FCD4136C33
:1022800023F0030343F0010313640D4A536A1C0354
:10229000FCD50B4B9A6FD207FCD41A6C22F00302C8
:1022A00002431A649A6F12F00102FBD10038054C08
:1022B00018BF01200129C4F8B40A08BF5A63D0E747
:1022C00000300E400000C6432DE9F04FA0F5E16359
:1022D00089B00024B3F5966FCDE90244CDE90444FA
:1022E000CDE9064406468A46934605D940F676313E
:1022F0005548FEF78BFAA3E0B0F5E16F534B8CBF66
:102300000122002249D1D3F81832C3F30721DBB2EE
:10231000079104934FF416754FF4966748E0BBF1AC
:10232000000F0ED0D9F85C2022F4FE4222F0020207
:10233000B6F5E16F42EA012218BF02200243C9F854
:102340005C20BAF1000F26D020460021FFF744FEA2
:10235000044610B940F6D331CAE701214046FFF7E1
:102360003BFE044610B940F6DB31C1E7384A536EF4
:10237000BD4238BF3D4623F4FF73E72D23F0010330
:1023800028BFE725B6F5E16F18BF43F0010343EA24
:102390004503536654E0012452E0D3F81832190E75
:1023A000C3F30743079104934FF496654FF4E16735
:1023B000DFF89C90D9F84C400192C4F30174234695
:1023C00005A902A8FFF712FDD9F8EC30019AC3F372
:1023D0000128434606A903A8FFF708FD049BF01B4C
:1023E000079FF91A4143B1FBF5F299182CBF01235D
:1023F00000238F421ED3EBB9069A039FD31B43439E
:10240000B3FBF5F3FF182CBF01230023BA4211D30D
:1024100083B9059B029AA3EB020C00FB0CF0B0FB06
:10242000F5F555192CBF01200020AB4202D300283E
:102430003FF475AF044840F6C431FEF7E7F90024D5
:10244000204609B0BDE8F08F484100000081E00F50
:1024500000300E40334A08B5136FD16C11F0010FF4
:1024600003F0060344D0002B42D0132857D9143868
:1024700013288CBF102308232A49013BCA6C180378
:1024800022F47F4240EA03231343CB64264BCA6CF9
:102490001B88C2F303222833013202EB820003EBD4
:1024A0005303B3FBF0F3C86C013B072B28BF072392
:1024B00020F0EE6040EA036343F48013CB641B4BCF
:1024C000B3F90030002B12DB03F12800C0F34E03F8
:1024D0000344500800EB4202B3FBF2F20B6D072AF3
:1024E00028BF072223F0700343EA02120A6508BDE1
:1024F000D16C01F00101194304D109280FD90A3820
:102500000928B6E7D26CD20702D50BB92728B0E765
:10251000074840F61941FEF779F90023ACE7042398
:10252000AAE700BF00300E40CE110020D0110020DD
:10253000484100000C4BD3F8803910B5044633B93C
:10254000012804D9094840F63741FEF75FF9084AE7
:10255000136F23F0070323431367064BBDE81040B6
:102560001888FFF777BF00BF0000C643484100004E
:1025700000300E40CC11002038B50389C82B04462A
:1025800004D9514840F61C21FEF740F9A28823895E
:102590009A4204D94C4840F61D21FEF737F9B4F9A8
:1025A0000C30C82B04DD484840F61E21FEF72EF9FA
:1025B0006378012B55D1A388C82B04D940F622217A
:1025C0004148FEF723F9E28842F210739A4204D997
:1025D0003D4840F62F21FEF719F9E3884A2B48D9E8
:1025E000B3F5FA7F47D340F6C312934294BF4FF03E
:1025F00000524FF040523549B4F90C00CB6C23F037
:10260000405323F001030028A8BF43F00103134304
:10261000CB64D1F8EC30A28843F44073C1F8EC30BD
:102620002B4B1A80CB6E43F08073CB66294BD3F8CB
:10263000800900B10420FFF77DFF274B2189198015
:10264000264BB4F90C20A0881A80FFF703FFA37B68
:10265000A3B1012B23D01C4840F62E11FEF7D6F86B
:102660000FE0022BAFD1A3880A2BACD940F627216B
:10267000A6E70022BFE74FF08052BCE7134B184A91
:102680009A65012260881146FFF71EFE054648B98B
:102690000D4840F66621FEF7B9F8284638BD0B4BC9
:1026A000104AEDE7094AD36B43F48063D363607843
:1026B000FFF7C0FDA37AA3F1200253425341054A1C
:1026C000C2F89437E9E700BF4841000000300E40EF
:1026D000CC1100200000C643CE110020D0110020F4
:1026E00077402057372110B7082838B504460D46E3
:1026F00004D84FF6FF73CB40DB0704D4064840F202
:102700002B41FEF783F83020044B0121444301FAAA
:1027100005F51D5138BD00BF964100000C800846EC
:10272000082838B504460D4604D84FF6FF73CB4051
:10273000DB0704D406484FF47F71FEF767F83020BA
:10274000044B0121444301FA05F51D5138BD00BF7A
:10275000964100000C80084470B505460E461446AC
:10276000FFF72AFB296881EA040202EA06044C40CA
:102770002C60BDE87040FFF723BB00000828F8B5C7
:1027800005460C4616461F4604D84FF6FF73CB404D
:10279000DB0704D418484FF4B071FEF737F826B1C0
:1027A00021462846C7B1FFF79FFF3023072C05FBC2
:1027B00003F34FF00F0112D8A00006FA00F2814097
:1027C0000E481844FFF7C8FFAEB92146284677B136
:1027D000BDE8F840FFF788BFFFF7A2FFE5E7A4F1E7
:1027E0000800800006FA00F281400548E9E7BDE8EC
:1027F000F840FFF795BFF8BDE541000004800840B0
:102800000880084010B5044618B91B488D21FDF713
:10281000FDFF23781B0613F0604F03D016488E216E
:10282000FDF7F4FFE378072B03D913489F21FDF749
:10283000EDFF01214FF4EA40FEF7CCF8B4F8013087
:1028400022785BBA9BB243EA02630C4A136000230E
:102850001362D36253634FF00043D3664FF0FF33EC
:102860009366074A0421C2F88011E3785B01DBB26A
:1028700082F80233116010BD344200000020004095
:1028800000E100E02DE9F041C3B20126172805461A
:102890000C46904606FA03F603DD3A48E621FDF7BA
:1028A000B5FF1CB93748E721FDF7B0FF236823F4D3
:1028B0007C1323F00F031BB13248EC21FDF7A6FF78
:1028C000A37A1B0413F47C0F04D02E4840F20311AA
:1028D000FDF79CFFE37A1B0513F07E6F04D02948B7
:1028E00040F20511FDF792FF237B5B0513F0FE5FBD
:1028F00004D0244840F20711FDF788FF224F637B84
:102900002268302000FB0570C0F88020C0F88830B5
:10291000E37AA27A1B0543EA0243227B43EA42534D
:1029200028F00302C0F88430C0F89820BE66FFF794
:102930004AFAFB6E3343FB66237A13B17B6B334356
:102940007B63637A13B1FB6A3343FB620E4B1A68F5
:10295000237923B1DB431B0263F47F431A4063797D
:102960000BB142EA0322A3790BB122EA0302E37915
:102970001A43054B1A60054A9662DE63BDE8F041D2
:10298000FFF727BA34420000002000400020004436
:1029900038B50B4B984204460D4608D003F58063CA
:1029A000984204D0074840F20911FDF72FFF636BEE
:1029B0009B07FCD415B10123636038BD0223FBE7FC
:1029C00000600640E642000038B5234B98420446BA
:1029D0000D4608D003F58063984204D01F484FF499
:1029E000B371FDF713FF297839B9A368DB0704D564
:1029F000636B9807FCD4022363606B78A878002B84
:102A000008BF0022EB6818BF4FF4805200B91BB119
:102A100042F4007203B12361EB780BB142F480728F
:102A20002B790BB142F040026B790BB142F080027E
:102A3000EB79A8791B0143EA8003287A0343134307
:102A4000236039B1A368DA0704D4636B9B07FCD415
:102A50000123636038BD00BF00600640E64200000D
:102A600070B506460C46154622B90F484FF4227140
:102A7000FDF7CCFE3CB90D4B9E420CBF0C480D48F7
:102A8000FEF7B6FC04460C4B6D00013CB4FBF5F4BC
:102A900013EA04234FEA042504D0034840F2A52199
:102AA000FDF7B4FE756170BD4D43000000080140A4
:102AB0005041070040410500070080FF38B5164B24
:102AC000984204460D4620D003F5806398421CD0FE
:102AD00003F58063984218D003F58063984214D0C0
:102AE00003F58063984210D003F5806398420CD0C0
:102AF00003F53053984208D003F58063984204D020
:102B0000064840F2BE21FDF781FEEB435B0003F077
:102B10000A03E360E56038BD000001404D4300005A
:102B200038B5254B254D984204461ED0A8421CD0EE
:102B300003F50063984218D003F58063984214D0DF
:102B400003F58063984210D003F5806398420CD05F
:102B500003F53053984208D003F58063984204D0BF
:102B6000174840F22E41FDF751FE40F6AA63E3609C
:102B700041F20502002323606260124AA360636190
:102B8000E364A2640C4A236694426367A367E36725
:102B900003D002F50062944200D123650023AC42C9
:102BA000A36506D0084A944203D002F5806294429D
:102BB00000D1E36538BD00BF0000014000040140C2
:102BC0004D430000F9FF0100000C014038B52E4BC9
:102BD000984204460D4618D003F58063984214D0FD
:102BE00003F58063984210D003F5806398420CD0BF
:102BF00003F58063984208D003F58063984204D0BF
:102C000022484FF45671FDF701FE2046FFF788FF7A
:102C1000A97B2A8A2368002942F0010214BF4FF4DD
:102C20008061002113430B432A7D23602368002A1F
:102C300014BF4FF00052002213432360AB7C1BB142
:102C4000EB7C43F08003A3652B7B43F480536360EC
:102C5000D5E901122046FFF703FF6B7B0BB1102370
:102C6000E3606B7D1BB1236843F480332360EB7D0D
:102C70002A7E1B07120503F0E04302F4E00213432F
:102C800023662B78E36038BD000001404D4300000F
:102C90007FB5094B6A4603F1100615461868596856
:102CA000144603C40833B3422246F7D12846FFF73F
:102CB00063FC002004B070BDB243000013B50223D2
:102CC0000024684600948DF804408DF80530FFF725
:102CD0001FFA204602B010BD1FB5124A1068516895
:102CE00001AB03C3906818600F4BD3F8B4201203F4
:102CF0000FD4D3F8B830C3F308030C48ADF806304E
:102D0000FDF74AFD01A8FEF7DDFF002005B05DF8E4
:102D100004FB074B1B884FF6FF72934208BF8423C6
:102D2000EBE700BFC24300000081E00F80F0FA0231
:102D30000001E00F07B5084B18680190462301A871
:102D40008DF80430FFF70CF86420FEF7FDFC00203E
:102D500003B05DF804FB00BFCE43000010B50C4883
:102D60000C4C6FF00402A02112F0800FD3B21BBFF5
:102D700003F00F03043BA3181B1802F101020CBF60
:102D800083F800131976462AEED1002010BD00BF4B
:102D900000ED00E000E100E008B5FDF72FFCFDF7D5
:102DA0006FFCFDF76EFCFDF76EFCBDE80840FDF71B
:102DB0006BBC08B5FDF769FCFDF768FCFDF767FC27
:102DC000BDE80840FDF764BC08B5074B044613B1E5
:102DD0000021AFF30080054B1868836A03B1984760
:102DE000204601F0C1F800BF00000000D4430000FD
:102DF00070B50D4D0D4C641BA4100026A64209D1E0
:102E00000B4D0C4C01F0B2F8641BA4100026A64236
:102E100005D170BD55F8043B98470136EEE755F8EB
:102E2000043B98470136F2E79C1000209C100020DC
:102E30009C100020A010002002440346934200D1C1
:102E4000704703F8011BF9E7164B10B51C68A36B1C
:102E5000B3B9182000F066F8A06328B90246124BF7
:102E600012484E2100F02EF8114A124BC0E90023FF
:102E7000114B83600B23838101220023C0E90423CB
:102E8000A46B0E4A206963690D49424301FB03228A
:102E9000A0FB0101431C42EB0100C4E9043020F017
:102EA000004010BD20100020D8430000EF43000078
:102EB0000E33CDAB34126DE6ECDE05002DF4515827
:102EC0002D7F954C1FB514461A46094B1B680546C5
:102ED000D8684CB1074B0091CDE9013406492B4627
:102EE00000F00EF800F08AFC044B1C46F3E700BF2C
:102EF000201000206C44000079440000A74400002A
:102F00000EB403B5014603AB054853F8042B006823
:102F1000019300F0DFF802B05DF804EB03B07047F6
:102F200020100020024B0146186800F04FB800BF87
:102F30002010002037B5002944D051F8043C0190FE
:102F4000002BA1F10404B8BFE41800F0D1FE1E4A22
:102F50000198136833B96360146003B0BDE8304072
:102F600000F0CCBEA34208D9256861198B4201BF8D
:102F700019685B6849192160EDE71A465B680BB177
:102F8000A342FAD911685518A5420BD124682144EF
:102F90005418A3421160E0D11C685B68536021445F
:102FA0001160DAE702D90C230360D6E725686119BE
:102FB0008B4204BF19685B68636004BF49192160D4
:102FC0005460CAE703B030BDDC110020F8B5CD1C59
:102FD00025F0030508350C2D38BF0C25002D0646BD
:102FE00001DBA94203D90C2333600020F8BD00F0B7
:102FF0007FFE21490A6814469CB9204F3B6823B9DB
:103000002146304600F02AFB38602946304600F061
:1030100025FB431C23D10C233360304600F06EFEA9
:10302000E3E723685B1B17D40B2B03D923601C44F5
:10303000256004E06368A2420CBF0B605360304619
:1030400000F05CFE04F10B00231D20F00700C21A03
:10305000CCD01B1AA350C9E722466468CCE7C41C35
:1030600024F00304A042E3D0211A304600F0F6FA1F
:103070000130DDD1CFE700BFDC110020E0110020DE
:103080009368013B002B10B4936008DA9469A34263
:1030900001DB0A2903D15DF8044B00F0EFBA136895
:1030A000581C1060197008465DF8044B7047F8B55D
:1030B00006460F461446D518AC4201D1002007E061
:1030C00014F8011B3A463046FFF7DAFF431CF3D1F0
:1030D000F8BD00002DE9F04F0D469DB0144698460E
:1030E000064618B183690BB900F0AAFC894B9D42D2
:1030F0001BD175686B6ED90705D4AB899A0502D4CC
:10310000A86D00F03BFDAB891B0701D52B69EBB91E
:103110002946304600F004FBC0B16B6EDC070ED5CB
:103120004FF0FF301DB0BDE8F08F7B4B9D4201D1C9
:10313000B568DFE7794B9D4208BFF568DAE7AB89F0
:103140009805EDD4A86D00F01AFDE9E70023099376
:1031500020238DF82930CDF80C803023DFF8C08192
:103160008DF82A304FF0010923469A4613F8012BB7
:103170000AB1252AF9D1BAEB040B0BD05B462246E3
:1031800029463046FFF793FF013000F0AA80099AE4
:103190005A4409929AF80030002B00F0A2800023D4
:1031A0004FF0FF32CDE905230AF1010A049307939A
:1031B0008DF853301A935446052214F8011B5848D1
:1031C00000F046FD049AD8B9D10644BF20238DF8FB
:1031D0005330130744BF2B238DF853309AF8003037
:1031E0002A2B15D0079A544600204FF00A0C21468E
:1031F00011F8013B303B092B4ED9B0B1079214E0D6
:10320000A0EB080309FA03F313430493A246D2E7A1
:10321000039B191D1B680391002BBBBF5B4242F04F
:10322000020207930793B8BF049223782E2B0CD188
:1032300063782A2B35D1039B1A1D1B680392002B40
:10324000B8BF4FF0FF3302340593DFF8E4A02178D4
:103250000322504600F0FCFC40B14023A0EB0A00E2
:1032600003FA00F0049B03430134049314F8011B98
:103270002C488DF82810062200F0EAFC00283FD0E8
:10328000294B1BBB039B073323F00703083303932E
:10329000099B3B44099367E70CFB02320C46012073
:1032A000A5E700230134059319464FF00A0C204688
:1032B00010F8012B303A092A03D9002BC5D005910B
:1032C000C3E70CFB012104460123F0E703AB0093A5
:1032D0002A46164B04A93046AFF300800746781CF7
:1032E000D6D16B6ED90705D4AB899A0502D4A86DE7
:1032F00000F045FCAB895B063FF512AF099811E77A
:1033000003AB00932A46094B04A9304600F080F82D
:10331000E4E700BFFC4400001C450000DC44000062
:10332000A8440000B244000000000000AF300000DC
:10333000AE4400002DE9F047164699468A680B69AD
:10334000DDF820809342B8BF1346336091F84320E4
:1033500007460C460AB1013333602368990642BF21
:10336000336802333360256815F0060506D104F191
:10337000190AE36832689B1AAB4226DC94F84320B2
:10338000131E226818BF012392062BD404F14302B6
:1033900049463846C04701301ED02368E568326888
:1033A00003F00603042B08BFAD1AA36822690CBF03
:1033B00025EAE57500259342C4BF9B1AED18002647
:1033C0001A34B5421AD1002008E00123524649467A
:1033D0003846C047013003D14FF0FF30BDE8F087D9
:1033E0000135C6E7E1185A1C302081F84300224419
:1033F00094F8451082F843100233C7E701232246B0
:1034000049463846C0470130E6D00136D9E70000CA
:103410002DE9FF470F7E0C9D782F914680460C4684
:103420009A4601F1430207D8622F0AD8002F00F014
:10343000D880582F00F0A38004F1420584F8427030
:103440003AE0A7F16303152BF6D801A151F823F058
:10345000A9340000BD3400003934000039340000C4
:103460003934000039340000BD3400003934000024
:10347000393400003934000039340000C935000007
:10348000ED340000AB350000393400003934000061
:10349000EB35000039340000ED3400003934000011
:1034A00039340000B33500002B681A1D1B682A60F0
:1034B00004F1420584F842300123A3E02068296822
:1034C000060601F104030AD50E682B60002E03DA0C
:1034D0002D23764284F843305E480A2319E00E68B3
:1034E0002B6010F0400F18BF36B2EFE72B68206852
:1034F000191D2960010601D51E6802E04606FBD5AC
:103500001E8854486F2F0CBF08230A23002184F81B
:1035100043106568A560002DA2BF216821F0040159
:1035200021600EB9002D4DD01546B6FBF3F103FB1B
:103530001167C75D05F8017D3746BB420E46F4D9D9
:10354000082B0BD12368DE0708D5236961689942EF
:10355000DEBF302305F8013C05F1FF35521B226127
:10356000CDF800A04B4603AA21464046FFF7E2FEF5
:1035700001304CD14FF0FF3004B0BDE8F087354842
:1035800081F845702968236851F8046B29601D068D
:1035900014D5DF0744BF43F0200323601EB923681E
:1035A00023F0200323601023B0E7236843F02003B7
:1035B00023607823284884F84530E3E7590648BF5C
:1035C000B6B2E6E71546BBE72B6826686169181DA9
:1035D000286035061B6801D5196002E07006FBD52E
:1035E0001980002323611546BAE72B681A1D2A604B
:1035F0001D6862680021284600F02AFB08B1401BC4
:10360000606063682361002384F84330A8E723697E
:103610002A4649464046D0470130ABD023689B0735
:1036200013D4E068039B9842B8BF1846A4E701236F
:10363000324649464046D04701309BD00135E368C9
:1036400003995B1AAB42F2DCEBE7002504F11906A3
:10365000F5E700BFB9440000CA44000038B5064D84
:103660000023044608462B60FDF7C0F8431C02D136
:103670002B6803B1236038BDE8110020F8B50E4671
:103680001446054618B183690BB900F0D9F9214BEE
:103690009C422BD16C68A369A360A3891A072FD51C
:1036A00023696BB323692068C01A6369F6B2834249
:1036B000374604DC2146284600F02EF930BBA368CB
:1036C000013BA36023685A1C22601E7063690130AD
:1036D000834204D0A389DB0706D50A2E04D12146F4
:1036E000284600F019F988B93846F8BD0A4B9C42C3
:1036F00001D1AC68CFE7094B9C4208BFEC68CAE730
:103700002146284600F00CF80028CBD04FF0FF37B8
:10371000EAE700BFFC4400001C450000DC44000058
:10372000324B70B51D6806460C4625B1AB6913B91E
:10373000284600F085F92E4B9C420FD16C68A38976
:10374000B4F90C2019072CD4DD0611D409233360F9
:1037500042F04003A3814FF0FF303EE0254B9C42F6
:1037600001D1AC68EBE7244B9C4208BFEC68E6E76C
:10377000580712D5616B41B104F14403994202D05C
:103780003046FFF7D7FB00236363A38923F02403AC
:10379000A3810023636023692360A38943F00803A6
:1037A000A38123694BB9A38903F42073B3F5007F88
:1037B00003D02146304600F009FAA089B4F90C2064
:1037C00010F001030AD00023A36063695B42A36188
:1037D000236943B910F08000BAD170BD810758BF8A
:1037E0006369A360F4E70020F7E700BF2010002022
:1037F000FC4400001C450000DC44000008B5062025
:1038000000F0AAFA012000F0AFFB00008A892DE940
:10381000F041054610070C4658D44B68002B05DCD8
:103820000B6C002B02DC0020BDE8F081E66A002E64
:10383000F9D0002312F480522F682B6032D0606DD3
:10384000A3895A0705D56368C01A636B0BB1236C53
:10385000C01A00230246E66A216A2846B047431C84
:10386000A38906D129681D292CD82A4ACA40D6071F
:1038700028D500226260D9042269226004D5421C46
:1038800001D12B6803B96065616B2F600029CAD034
:1038900004F14403994202D02846FFF74BFB002075
:1038A0006063C1E7216A01232846B047411CC7D1A4
:1038B0002B68002BC4D01D2B01D0162B01D12F60FB
:1038C000B1E7A38943F04003A381ADE70F69002F5F
:1038D000A9D093070E6808BF4B690F6018BF00237B
:1038E000A6EB07088B60B8F1000F9CDD216AA66A81
:1038F00043463A462846B047002806DCA38943F0F1
:103900004003A3814FF0FF308EE70744A8EB000887
:10391000E9E700BF0100402038B50B6905460C46B9
:1039200013B90025284638BD18B183690BB900F0DA
:1039300087F8144B9C421BD16C68B4F90C30002BF7
:10394000EFD0626ED00704D4990502D4A06D00F0C8
:1039500015F928462146FFF759FF636EDA07054639
:10396000E0D4A3899B05DDD4A06D00F008F9D9E768
:10397000054B9C4201D1AC68DFE7044B9C4208BF79
:10398000EC68DAE7FC4400001C450000DC44000061
:10399000002310B50446C0E90033C0E90433836056
:1039A00081814366C2818361194608225C30FFF73A
:1039B00043FA054B6362054BA362054BE362054B7B
:1039C0002462236310BD00BF913D0000B33D0000A1
:1039D000EB3D00000F3E0000014900F0AFB800BF12
:1039E0001939000070B568224D1E55430E4605F189
:1039F0007401FFF7EBFA044640B10021C0E900165C
:103A00000C30A06005F16802FFF716FA204670BD81
:103A1000014800F0B3B800BFE5110020014800F0F4
:103A2000AEB800BFE5110020014800F0A7B800BF04
:103A3000E6110020014800F0A2B800BFE611002006
:103A400010B50446FFF7F0FFA3691BB1BDE81040B5
:103A5000FFF7F0BFC4E912332365134B134A1B6809
:103A6000A262A34204BF0123A361204600F020F814
:103A70006060204600F01CF8A060204600F018F8B6
:103A80000022E06004216068FFF782FFA068012245
:103A90000921FFF77DFFE06802221221FFF778FF7E
:103AA0000123A361D2E700BFD4430000D93900004D
:103AB000F8B50746FFF7ACFF1E4B1E68B36913B994
:103AC0003046FFF7BDFF4836D6E90134013B03D548
:103AD00033680BB33668F7E7B4F90C50D5B9164B19
:103AE000E36004F15800656600F047F8FFF796FFC1
:103AF000C4E90155C4E904552560A5610822294699
:103B000004F15C00FFF798F9C4E90D55C4E91255BA
:103B10002046F8BD6834D9E704213846FFF762FF34
:103B2000044630600028D5D1FFF778FF0C233B60B6
:103B3000EEE700BFD44300000100FFFF2DE9F8438A
:103B40000646884600F148040027D4E90195B9F1FA
:103B5000010905D52468002CF7D13846BDE8F88363
:103B6000AB89012B07D9B5F90E30013303D02946B3
:103B70003046C04707436835E9E7704770477047EC
:103B800070B50E46B1F90E10002996B014461D46C8
:103B900008DAB6F90C3000222A601A0610D44FF465
:103BA00080630EE06A4600F059F90028F1DB019AC3
:103BB00002F47042A2F500535A425A412A60EEE7DD
:103BC00040230020236016B070BD00008B8973B5C0
:103BD0009D0706460C4607D504F147032360236181
:103BE0000123636102B070BD01AB6A46FFF7C8FFF5
:103BF000009905463046FFF7E9F948B9B4F90C30A9
:103C00009A05EFD423F0030343F00203A381E3E713
:103C10000D4BB362A389206043F08003A381009B16
:103C20006361019B20615BB1B4F90E10304600F076
:103C300027F928B1A38923F0030343F00103A381EB
:103C4000A0890543A581CDE7D93900000000000017
:103C500001F0FF01102A2BDB10F0070F08D010F83D
:103C6000013B013A8B422DD010F0070F42B3F6D141
:103C7000F0B441EA012141EA014122F007047FF05A
:103C800000070023F0E80256083C85EA010586EAB1
:103C9000010685FA47F5A3FA87F586FA47F6A5FAED
:103CA00087F68EB9EED1F0BC01F0FF0102F00702F9
:103CB00032B110F8013B013A83EA010313B1F8D1A4
:103CC0000020704701387047002D06BF3546033885
:103CD000073815F0010F07D1013015F4807F02BFBE
:103CE000013015F4C03F0130F0BC0138704700BF0F
:103CF0000148FFF743BF00BFE41100200148FFF770
:103D00003EBF00BFE41100201F2938B504460D4610
:103D100004D9162303604FF0FF3038BD426C12B156
:103D200052F821304BB9204600F030F82A460146BF
:103D30002046BDE8384000F017B8012B0AD0591CC6
:103D400003D1162303600120E7E7002442F8254051
:103D5000284698470020E0E7024B01461868FFF725
:103D6000D3BF00BF2010002038B5074D0023044604
:103D7000084611462B6000F0D7F8431C02D12B688F
:103D800003B1236038BD00BFE811002000F0BCB8CB
:103D900010B50C46B1F90E1000F094F80028ABBF36
:103DA000636DA3891B1823F48053ACBF6365A381A3
:103DB00010BD2DE9F0411F468B89DB0505460C46F9
:103DC000164605D5B1F90E100223002200F068F85E
:103DD000A389B4F90E1023F48053A38132463B46E5
:103DE0002846BDE8F04100F017B810B50C46B1F90F
:103DF0000E1000F055F8431CA38915BF606523F42D
:103E0000805343F48053A38118BFA38110BDB1F93F
:103E10000E1000F013B8000038B5074D04460846F0
:103E2000114600222A601A4600F096F8431C02D17F
:103E30002B6803B1236038BDE811002038B5064D6A
:103E40000023044608462B6000F04EF8431C02D1C4
:103E50002B6803B1236038BDE811002038B5074D49
:103E600000230446084611462B6000F045F8431C29
:103E700002D12B6803B1236038BD00BFE8110020D8
:103E800038B5064D0023044608462B6000F044F880
:103E9000431C02D12B6803B1236038BDE811002018
:103EA00038B5074D04460846114600222A601A46D6
:103EB00000F042F8431C02D12B6803B1236038BDE7
:103EC000E811002038B5074D044608461146002287
:103ED0002A601A4600F038F8431C02D12B6803B15F
:103EE000236038BDE8110020024B58221A604FF0C1
:103EF000FF307047E8110020024B58221A604FF043
:103F0000FF307047E8110020024B58221A604FF032
:103F1000FF307047E8110020024B58221A60002041
:103F2000704700BFE8110020024B58221A604FF082
:103F3000FF307047E8110020024B58221A604FF002
:103F4000FF307047E8110020024B58221A604FF0F2
:103F5000FF307047E8110020024B58221A604FF0E2
:103F6000FF307047E8110020FEE700BFF8B500BF42
:103F7000F8BC08BC9E467047F8B500BFF8BC08BC4A
:103F80009E467047000000005FF800F0851000209A
:103F9000050000000000000040420F000501000085
:103FA00000000000000000000000000017000003F7
:103FB0000000FFFF00FFFF000000FFFF00FF00FF09
:103FC000FF0000000024F4000000000000000000DA
:103FD000000000000048E80100000000006CDC0266
:103FE00080F0FA02433A2F55736572732F4D495989
:103FF00041424C4F4E2F53696D706C6963697479FF
:1040000053747564696F2F53444B732F6765636BEB
:104010006F5F73646B2F706C6174666F726D2F6568
:104020006D6C69622F7372632F656D5F636D752EA2
:104030006300633A5C75736572735C6D6979616284
:104040006C6F6E5C73696D706C696369747973749D
:104050007564696F5C73646B735C6765636B6F5FDA
:1040600073646B5C706C6174666F726D5C656D6CB3
:1040700069625C696E635C656D5F636F6D6D6F6EC9
:104080002E6800633A5C75736572735C6D69796163
:10409000626C6F6E5C73696D706C6963697479735F
:1040A000747564696F5C73646B735C6765636B6F75
:1040B0005F73646B5C706C6174666F726D5C656D70
:1040C0006C69625C696E635C656D5F636D752E68BB
:1040D000000403020D0A0E0302010C0302060C0A7F
:1040E000040B05020309070301050B08060200047F
:1040F0000A0000014000040001001000000400025A
:1041000080000800020020000008000103000000F9
:1041100080A81201000000000051250200010000EB
:1041200080F937030002000000A24A0400030000E7
:10413000C0CF6A0002000000809FD500020100008D
:10414000002D310102020000433A2F55736572734E
:104150002F4D495941424C4F4E2F53696D706C6938
:104160006369747953747564696F2F53444B732F6B
:104170006765636B6F5F73646B2F706C6174666FE0
:10418000726D2F656D6C69622F7372632F656D5F41
:10419000656D752E6300633A5C75736572735C6D53
:1041A000697961626C6F6E5C73696D706C6963696B
:1041B000747973747564696F5C73646B735C676541
:1041C000636B6F5F73646B5C706C6174666F726D50
:1041D0005C656D6C69625C696E635C656D5F677080
:1041E000696F2E6800433A2F55736572732F4D49DE
:1041F0005941424C4F4E2F53696D706C696369741D
:104200007953747564696F2F53444B732F676563DB
:104210006B6F5F73646B2F706C6174666F726D2F60
:10422000656D6C69622F7372632F656D5F6770696E
:104230006F2E6300433A2F53696C69636F6E4C6154
:1042400062732F53696D706C696369747953747507
:1042500064696F2F76352F646576656C6F70657253
:104260002F73646B732F6765636B6F5F73646B5F32
:1042700073756974652F76332E322F706C61746696
:104280006F726D2F656D6C69622F7372632F656D30
:104290005F6C646D612E6300633A5C757365727365
:1042A0005C6D697961626C6F6E5C73696D706C696D
:1042B0006369747973747564696F5C73646B735C40
:1042C0006765636B6F5F73646B5C706C6174666F62
:1042D000726D5C656D6C69625C696E635C656D5F77
:1042E0006275732E6800433A2F53696C69636F6E71
:1042F0004C6162732F53696D706C69636974795393
:10430000747564696F2F76352F646576656C6F7090
:1043100065722F73646B732F6765636B6F5F736474
:104320006B5F73756974652F76332E322F706C61F5
:1043300074666F726D2F656D6C69622F7372632F77
:10434000656D5F6C6574696D65722E6300433A2F0D
:1043500053696C69636F6E4C6162732F53696D7042
:104360006C696369747953747564696F2F76352F3E
:10437000646576656C6F7065722F73646B732F67FD
:1043800065636B6F5F73646B5F73756974652F76BC
:10439000332E322F706C6174666F726D2F656D6C89
:1043A00069622F7372632F656D5F75736172742E0E
:1043B00063000002080705000A00C8000000FFFFB4
:1043C000010000000000000600010D080E000002C0
:1043D00007000000241000205245454E54206D6116
:1043E0006C6C6F6320737563636565646564002F2F
:1043F0006D6E742F776F726B73706163652F776F5B
:10440000726B73706163652F4743432D31302D709C
:104410006970656C696E652F6A656E6B696E732D68
:104420004743432D31302D706970656C696E652D81
:1044300034385F32303230313132345F31363036F9
:104440003138303634312F7372632F6E65776C6973
:10445000622F6E65776C69622F6C6962632F73746B
:10446000646C69622F72616E642E63002C20667525
:104470006E6374696F6E3A2000617373657274695C
:104480006F6E2022257322206661696C65643A2074
:1044900066696C6520222573222C206C696E65206C
:1044A0002564257325730A00232D302B2000686CAA
:1044B0004C00656667454647003031323334353647
:1044C0003738394142434445460030313233343580
:1044D00036373839616263646566000000000000A9
:1044E00000000000000000000000000000000000CC
:1044F00000000000000000000000000000000000BC
:1045000000000000000000000000000000000000AB
:10451000000000000000000000000000000000009B
:10452000000000000000000000000000000000008B
:0C4530000000000000000000000000007F
:08453C0054BCFF7F01000000E8
:10454400C0EA210180F0FA02C0EA210100800000E3
:10455400F0110020C0EA2101FFFF0000006CDC0222
:104564002410002000000000FC4400001C45000052
:10457400DC44000000000000000000000000000017
:104584000000000000000000000000000000000027
:104594000000000000000000000000000000000017
:1045A4000000000000000000000000000000000007
:1045B40000000000000000000000000000000000F7
:1045C40000000000044AD2F84C3143F0004330BFED
:1045D400C2F84C31704700BF00300E407501000036
:0445E4005101000081
:04000003000006C132
:00000001FF
